:100000000C94AB010C94DC010C94DC010C94DC012D
:100010000C94DC010C94DC010C94DC010C94DC01EC
:100020000C94DC010C94DC010C94DC010C94DC01DC
:100030000C94DC010C94DC010C94DC010C94DC01CC
:100040000C94DC010C94DC010C94DC010C94DC01BC
:100050000C94DC010C94DC010C94DC010C94AF16C4
:100060000C94DC010C9423170C94F9160C94DC010D
:100070000C94DC010C94DC010C94DC010C94DC018C
:100080000C94DC010C94DC010C94DC010C94DC017C
:100090000C94DC010C94DC010C94DC010C94DC016C
:1000A0000C94DC010C94DC010C94DC010C94DC015C
:1000B0000C94DC010C94DC010C94DC010C94DC014C
:1000C0000C94DC010C94DC010C94DC010C94DC013C
:1000D0000C94DC010C94DC010C94DC010C94DC012C
:1000E0000C94DC010C9452030C94EA060C94F0027C
:1000F0000C94EA020C9421160C94B8050C94340765
:100100000C94C0040C94C1020C9437060C94750333
:100110000C94C4040C9461060C94E8050C946103DF
:100120000C9431070C9469050C94DC040C9455076D
:100130000C94DB150C9459040C94A3020C947909CB
:100140000C9422030C94CE020C941F030C94B5045F
:100150000C9448070C94D8020C9424050C94DC02EF
:100160000C9467090C94A7080C943F070C94AB08F7
:100170000C94FB060C9425030C94F0060C94BD0221
:100180000C943E050C9486060C94DD060C94D40267
:100190000C948C050C946C090C9454050C94C104BB
:1001A0000C94C7040C9408040C94B9020C943707FF
:1001B0000C94BB050C94DD150C9406070C94F60406
:1001C0000C948A150C9483030C9452070C94ED063E
:1001D0000C94BD060C940B060C94B5020C94F4021E
:1001E0000C9459170C941E070C94AA060C949B06A9
:1001F0000C94D2060C940C050C949E020C945105A0
:100200000C94BE050C94DF150C9409050C9427077B
:100210000C94C4020C946A160C945D070C94BB03F6
:100220000C94CA020C945A040C9470060C940F059A
:100230000C94C8040C94E2020C94E6020C940A0993
:100240000C9483060C9413074A0900004D09000022
:100250005009000053090300580909006109090009
:100260006A09030048020700000022002500280058
:100270002B002E00310034000201000005010801AE
:100280000B0105050505070508080808020202021A
:100290000A0A080804040404010101010101010122
:1002A0000303030303030303040707070C0C0C0CED
:1002B0000C0C0C0C020202020606060606060606D6
:1002C0000B0B0B0B0B0B0B0B010210202008081063
:1002D00020401020408002010201080402010102B6
:1002E000040810204080804020100804020180048F
:1002F00002018040201008040201080402010102EA
:1003000004081020408001020408102040800000F2
:100310000A0B02090C0D0E0807030401000000007F
:1003200000000000000000000000000000000000CD
:10033000000000000000000000001211100000008A
:1003400000000000000000000000000000000000AD
:1003500000000000591711241FBECFEFDFEFDEBFF2
:10036000CDBF00E00CBF15E0A0E0B2E0EAEAFDE39B
:1003700000E00BBF02C007900D92AA34B107D9F775
:1003800029E0AAE4B5E001C01D92AB39B207E1F75C
:1003900011E0CBEAD1E000E006C021970109802FEF
:1003A000FE010E94DD1CCA3AD10780E00807A9F7C8
:1003B0000E94B6170C94D31E0C9400004091A7071E
:1003C0005091A807E9EAF7E081E090E0423051055A
:1003D00030F41092A8071092A7070895C90121814F
:1003E00021939C012F5F3F4F42175307B9F790931A
:1003F000A8078093A7070895E6E4F9E080EF94E06A
:10040000918380838CED94E09383828314821582A0
:100410001682178210861186128613861486168617
:1004200015861786118A108A128A138A148A158AE9
:10043000168A178A108E118E128E138E148E158EB8
:10044000168E178E10A211A212A213A215A214A228
:1004500016A210A617A281E081A712A613A62AE66B
:1004600039E0309314022093130228E439E037AFC7
:1004700026AF2CE035E035A724A716A69DE297A766
:1004800091E390AB81AB12AA13AA14AA15AA81E03A
:1004900090E0A0E0B0E086AB97ABA0AFB1AF84E84E
:1004A00099E093AF82AF81E090E095AF84AF22E115
:1004B00035E0309387092093860927E135E03093B2
:1004C00089092093880922E739E030938B0920932A
:1004D0008A0990938D0980938C090895282F30E024
:1004E000F901E25FFC4F9491F901E853FD4F44910B
:1004F0002E573D4FF9012491222309F435C0992349
:1005000011F191509231F8F4E92FF0E08827E45787
:10051000FD4F8F4F0C94DD1CBD02C1029E02B5023F
:10052000B902A302C402CA02CE02D402D802DC027B
:10053000E202E602A302EA02F002F40280918000E5
:100540008F7780938000E22FF0E0EE0FFF1FE859D5
:10055000FD4FA591B4918FB7F894EC91611148C00B
:1005600040954E234C938FBF0895809180008F7DDE
:10057000E8CF80918000877FE4CF84B58F7784BDFA
:10058000E2CF84B58F7DFBCF8091B0008F778093D1
:10059000B000D9CF8091B0008F7DF9CF80919000CD
:1005A0008F7780939000CFCF809190008F7DF9CF8F
:1005B00080919000877FF5CF8091A0008F77809306
:1005C000A000C1CF8091A0008F7DF9CF8091A000C5
:1005D000877FF5CF809120018F7780932001B3CF63
:1005E000809120018F7DF9CF80912001877FF5CF09
:1005F0004E2BB8CF3FB7F8948091A3079091A407F2
:10060000A091A507B091A60726B5A89B05C02F3FCE
:1006100019F00196A11DB11D3FBFBA2FA92F982F28
:100620008827BC01CD01620F711D811D911D42E023
:10063000660F771F881F991F4A95D1F7089581E0AB
:1006400090E00895805C9F4F0895AF92BF92CF9243
:10065000DF92EF92FF920F931F93CF93DF936C0182
:100660007B018B01040F151FEB015E01AE18BF0863
:10067000C017D10759F06991D601ED91FC91019015
:10068000F081E02DC6011995892B79F7C501DF911D
:10069000CF911F910F91FF90EF90DF90CF90BF907F
:1006A000AF900895FC01538D448D252F30E0842FA9
:1006B00090E0821B930B541710F0CF96089501978A
:1006C0000895FC01918D828D981761F0A28DAE0F77
:1006D000BF2FB11D5D968C91928D9F5F9F73928FFE
:1006E00090E008958FEF9FEF0895FC01918D828D2A
:1006F000981731F0828DE80FF11D858D90E00895F7
:100700008FEF9FEF0895FC01918D228D892F90E04E
:10071000805C9F4F821B91098F739927089589EA06
:1007200098E00E94830321E0892B09F420E0822FC6
:100730000895FC01A48DA80FB92FB11DA35ABF4F76
:100740002C91848D90E001968F739927848FA689D0
:10075000B7892C93A089B1898C91837080648C9324
:10076000938D848D981306C00288F389E02D8081D3
:100770008F7D80830895EF92FF920F931F93CF9305
:10078000DF93EC0181E0888F9B8D8C8D98131AC0CC
:10079000E889F989808185FF15C09FB7F894EE89B3
:1007A000FF896083E889F989808183708064808310
:1007B0009FBF81E090E0DF91CF911F910F91FF905B
:1007C000EF900895F62E0B8D10E00F5F1F4F0F7303
:1007D0001127E02E8C8D8E110CC00FB607FCFACFBE
:1007E000E889F989808185FFF5CFCE010E949903C0
:1007F000F1CFEB8DEC0FFD2FF11DE35AFF4FF0828F
:100800009FB7F8940B8FEA89FB8980818062CFCFF4
:10081000CF93DF93EC01888D8823B9F0AA89BB8937
:10082000E889F9898C9185FD03C0808186FD0DC022
:100830000FB607FCF7CF8C9185FFF2CF808185FF43
:10084000EDCFCE010E949903E9CFDF91CF910895BA
:1008500080E090E0892B29F00E948F0381110E9493
:10086000000080E090E0892B49F080E090E0892B47
:1008700029F00E94000081110E94000080E090E0B9
:10088000892B49F080E090E0892B29F00E9400003C
:1008900081110E94000080E090E0892B49F080E007
:1008A00090E0892B29F00E94000081110C94000037
:1008B00008950895FC0184A1882389F185A196A15A
:1008C0008130910579F58381811102C081E08283B5
:1008D0008681811102C081E085838185811101C0FB
:1008E00010868585811104C088E490E09487838711
:1008F0008489811108C080E090E0A6E6B3E4808B93
:10090000918BA28BB38B858D81112EC080E090E0FE
:10091000A8E4B2E4818F928FA38FB48F089582A14F
:1009200093A1CECF892B01F58381811101C0128261
:100930008681811101C015828185811102C081E00B
:1009400080878585811102C0148613868489811170
:1009500004C0108A118A128A138A858D811104C0FD
:10096000118E128E138E148E0895FB011082118247
:1009700012821382FA011082118212821382089568
:10098000089590E080E0089590E080E00895089553
:100990008BE195E00895282F86E692E0A0E0BB2742
:1009A00030E0220F331F820F931FA11DB11DABBF7B
:1009B000FC01879196910895CF93DF9300D01F9209
:1009C000CDB7DEB7FB014081518162817381FC01AB
:1009D0002481211104C040835183628373830F906B
:1009E0000F900F900F90DF91CF910895FC018481BB
:1009F000882351F085819681A781B085FB01808392
:100A00009183A283B383089580819181A281B38170
:100A1000F5CFFC0114820895FC0114820895CF9350
:100A2000DF93FC01EB0188819981AA81BB8121E0E0
:100A3000248385839683A783B08780839183A28351
:100A4000B383DF91CF910895CF93DF9300D01F92AE
:100A5000CDB7DEB7FB014081518162817381FC011A
:100A60002481211104C040835183628373830F90DA
:100A70000F900F900F90DF91CF910895FC0184812A
:100A8000882351F085819681A781B085FB01808301
:100A90009183A283B383089580819181A281B381E0
:100AA000F5CFFC0114820895CF93DF93FC01EB0195
:100AB00088819981AA81BB8121E0248385839683E3
:100AC000A783B08780839183A283B383DF91CF9183
:100AD0000895FC01DB01808581111DC07C91119678
:100AE0006C91119712965C91129713964C911397F3
:100AF00014963C91149715962C91159716969C91E7
:100B0000169717968C917083618352834383348345
:100B10002583968387830895FC01DB0180858823E4
:100B2000F1F07185628553854485358526859785E5
:100B300080897C9311966C93119712965C9312970F
:100B400013964C93139714963C93149715962C93E5
:100B5000159716969C93169717968C930895708107
:100B60006181528143813481258196818781E1CFE2
:100B7000FC0110860895FC0110860895FC01DB013C
:100B80007C9111966C91119712965C911297139625
:100B90004C91139714963C91149715962C91159798
:100BA00016969C91169717968C91A1E0A087718755
:100BB000628753874487358726879787808B708322
:100BC0006183528343833483258396838783089587
:100BD000FC01DB01808581111DC07C9111966C9117
:100BE000119712965C91129713964C911397149645
:100BF0003C91149715962C91159716969C911697E3
:100C000017968C9170836183528343833483258349
:100C1000968387830895FC01DB0180858823F1F0AA
:100C200071856285538544853585268597858089BC
:100C30007C9311966C93119712965C93129713966E
:100C40004C93139714963C93149715962C931597E1
:100C500016969C93169717968C93089570816181D0
:100C6000528143813481258196818781E1CFFC01C6
:100C7000DB017C9111966C91119712965C91129701
:100C800013964C91139714963C91149715962C91AA
:100C9000159716969C91169717968C91A1E0A087B0
:100CA0007187628753874487358726879787808B2C
:100CB0007083618352834383348325839683878340
:100CC0000895FC01248121110AC0FB01408151815A
:100CD00062817381FC014083518362837383089531
:100CE000FC018481882351F085819681A781B0859C
:100CF000FB0180839183A283B383089580819181D6
:100D0000A281B381F5CFFC0114820895CF93DF93C4
:100D1000FC01EB0188819981AA81BB8121E02483B8
:100D200085839683A783B08780839183A283B383CF
:100D3000DF91CF910895FC01248121110AC0FB01AC
:100D40004081518162817381FC01408351836283C0
:100D500073830895FC018481882351F085819681F5
:100D6000A781B085FB0180839183A283B38308951B
:100D700080819181A281B381F5CFCF93DF93FC0174
:100D8000EB0188819981AA81BB8121E0248385833D
:100D90009683A783B08780839183A283B383DF91F7
:100DA000CF910895FC012281211106C0FB01208111
:100DB0003181FC01318320830895FC0182818823E5
:100DC00031F083819481FB01918380830895808138
:100DD0009181F9CFFC0112820895FC0112820895DD
:100DE000FC01DB018D919C9121E02283948383831C
:100DF000918380830895FC012281211106C0FB01AB
:100E000020813181FC01318320830895FC0182819E
:100E1000882331F083819481FB019183808308953D
:100E200080819181F9CFFC01DB018D919C9121E0C2
:100E3000228394838383918380830895FC0121819D
:100E4000211104C0FB012081FC0120830895FC01D5
:100E50008181882321F08281FB0180830895808134
:100E6000FBCFFC0111820895FC0111820895FC0161
:100E7000DB018C9191E09183828380830895FC0152
:100E80002181211104C0FB012081FC0120830895F0
:100E9000FC018181882321F08281FB0180830895F8
:100EA0008081FBCFFC0111820895FC01DB018C9154
:100EB00091E09183828380830895FC01818188235E
:100EC00021F08281FB01808308958081FBCF90E037
:100ED00080E0FC01EE0FFF1FE150F94F0190F0811F
:100EE000E02D309709F0108201968833910589F73B
:100EF000EFEBF6E08FEF96E0A191B191109711F032
:100F00001D921C928E179F07B9F7E0E5F5E080E986
:100F100095E0A191B191109729F01D921D921D921B
:100F20001C9213978E179F07A1F70895E091130263
:100F3000F091140280910C023097C9F1823051F186
:100F400028F4882379F1813069F108958330B1F074
:100F5000843069F58085882351F18185808382857D
:100F60008183838582838485838385858483868545
:100F700085838785868380898783089584818823F4
:100F8000B1F085819681A781B08580839183A2830A
:100F9000B38308958281882351F083819481918362
:100FA000808308958181882311F082818083089550
:100FB000209113023091140250910B0240910C02C7
:100FC00080910D0290910E02E0910F026E2F70E061
:100FD00021153105C1F05130E9F0F0F1523099F4AA
:100FE000433091F0443041F0423069F4880F991F4A
:100FF000FC01E951FA4F05C0880F991FFC01E95621
:10100000FA4F318320830895880F991FFC01E15422
:10101000FA4FF7CF4230D1F0433079F04111F3CF9E
:10102000FC0153E0EE0FFF1F5A95E1F7E60FF71FA3
:10103000EE0FFF1FE150F94FE4CF8032910518F712
:10104000880F991FFC01E05BFA4FDBCF880F991FD7
:10105000FC01E154F94FD5CF442341F0423099F6D9
:10106000880F991FFC01E15FF94FCBCFFC0183E0B2
:10107000EE0FFF1F8A95E1F7E60FF71FEE0FFF1F38
:10108000E15BF94FBECF0F931F93882339F060E0E7
:1010900070E080E090E01F910F91089506E612E065
:1010A00020E033272BBFF8010791169160177107D5
:1010B000B0F484E692E0A0E0BB27ABBFFC018791CF
:1010C0009691660F771F660F771F680F791FFB01D8
:1010D00025913491FB0132968491B901DBCF60E018
:1010E00070E0D8CF0E944308672B59F0853148F44F
:1010F00099E0899FF0011124E55EFB4F808590E027
:10110000089590E080E008950F931F93CF938A0194
:101110000E944308E82FCB010097B1F0E531A0F41D
:1011200029E0E29FF0011124E55EFB4FC085CC234E
:1011300059F00480F581E02DB80119958C2F90E0CD
:10114000CF911F910F91089590E080E0F9CF9E5FBD
:10115000FC0110820895EF92FF920F931F93CF939B
:10116000DF93CDB7DEB7CC5FD2400FB6F894DEBFC9
:101170000FBECDBFFB0130813F3708F03EE7FB01DA
:10118000BE016F5F7D4FDB0120E0231751F04281EC
:1011900051814527542745274D935D932F5F329604
:1011A000F4CF30E0DE01119650E040E07D014217BF
:1011B000530748F4FB0101911191BF010D931D9359
:1011C0004F5F5F4FF4CFD901AA0FBB1FAE0DBF1DFC
:1011D0001D921C92DC01BE5F41E04C93C150DE4F7A
:1011E00039832883CF5FD140119680E092E0F701E8
:1011F00001900D920197E1F7C450DD4F0FB6F894BE
:10120000DEBF0FBECDBFDF91CF911F910F91FF9039
:10121000EF900895EF92FF920F931F93CF93DF9378
:10122000CDB7DEB7CC5FD2400FB6F894DEBF0FBEAD
:10123000CDBFFB0130813F3708F03EE7FB01BE0127
:101240006F5F7D4FDB0120E0231751F04281518118
:101250004527542745274D935D932F5F3296F4CF52
:1012600030E0DE01119650E040E07D014217530767
:1012700048F4FB0101911191BF010D931D934F5F44
:101280005F4FF4CFA901440F551F4E0D5F1DFA01AA
:1012900011821082C150DE4F39832883CF5FD14045
:1012A00020E032E0F701DC0101900D922150304046
:1012B000D9F7C450DD4F0FB6F894DEBF0FBECDBFD7
:1012C000DF91CF911F910F91FF90EF9008958F5F65
:1012D0009E4FFC0110820895FC012181211108C05C
:1012E00021E0FB013081311101C020E0FC012083AD
:1012F0000895FC0181E0DB019C91911101C080E027
:1013000091E091838283808308950F931F93582FD8
:10131000577001E010E020E030E004C0000F111F22
:10132000221F331F5A95D2F723E0969587952A9569
:10133000E1F79927E0917907F0917A07662321F088
:10134000E0917F07F0918007E80FF91F8081442327
:1013500029F0082B00831F910F9108950095082311
:10136000F9CF23E030E030934F0520934E05E9EAB2
:10137000F7E090916F07908380588183628308958E
:101380002091A907209530E0F901E55EFC4F90819E
:101390009095255E3D4FD9018C9140914E0550911D
:1013A0004F0542505109E9EAF7E031969F01295A69
:1013B00037402417350770F420819227292F30E019
:1013C000D901A55EBC4F9C919827255E3D4FD90160
:1013D0008C91EBCF08952F923F924F925F926F9234
:1013E0007F928F929F92AF92BF92CF92DF92EF92B5
:1013F000FF920F931F93CF93DF93CDB7DEB7C855FE
:10140000D1090FB6F894DEBF0FBECDBF10E000E0EB
:10141000F801EE0FFF1FE150F94F0190F081E02D30
:10142000309749F041E08081811101C040E060E0E7
:10143000C8010E9485090F5F1F4F0833110541F74E
:10144000E0907007F09071070FEB16E02F961FAF3A
:101450000EAF2F978701005C1F4FF7012FEB36E08F
:10146000D9018D919D919D01009729F0DC018D910D
:101470009C919183808332960E171F0789F7D12C98
:10148000C12CF601EE0FFF1FE15BF94F0190F081D7
:10149000E02D309749F041E08081811101C040E0AA
:1014A00061E0C6010E948509BFEFCB1ADB0AE8E3C1
:1014B000CE16D10431F74FE056E0E0917C07F09171
:1014C0007D079F01205C3F4FDA018D919D91AD0119
:1014D000009729F0DC018D919C9191838083329655
:1014E0002E173F0789F7E7EEF5E06196FFAFEEAF05
:1014F0006197F80108E6E00EF11C27EE35E0D9010E
:101500008D919D919D01009729F0DC018D919C9119
:10151000918380833296EE16FF0689F7EFEBF5E0B4
:101520006396FFAFEEAF6397E0917307F091740796
:101530009F01205B3F4F0FEB15E0D8018D919D91EE
:101540008D01009749F0DC014D915D916D917C9189
:10155000408351836283738334962E173F0769F764
:10156000E7E9F5E02D96FFAFEEAF2D97E091760716
:10157000F09177079F0120563F4F87E995E0DC0106
:10158000CD90DD90CD01C114D104F1F0D601EC90E5
:101590001196FC90119712960C91129713961C912C
:1015A000139714967C91149715966C91159716962F
:1015B0005C91169717964C91E082F1820283138317
:1015C00074836583568347833896E217F307B9F629
:1015D000F0906F07C09094052996CFAE2997C090E0
:1015E0009505D09096052796DFAECEAE2797279625
:1015F000AEADBFAD2797ED91FC9111970084F185B9
:10160000E02DCD01199518161906BCF58091A70794
:101610009091A8078F3F910509F078F52796AEAD18
:10162000BFAD2797ED91FC9111970284F385E02DD2
:10163000CD0119952091A7073091A807A9014F5F07
:101640005F4F5093A8074093A7072755384FF901DC
:1016500080832FB7F89480919F079091A007A09165
:10166000A107B091A2072FBF80934A0590934B0525
:10167000A0934C05B0934D05BACF4091A707509168
:10168000A8074115510509F487C08091A907F816EC
:1016900019F00E94DE01F1CF4230510508F48BC1F0
:1016A0008091AA0709E0802E912CA12CB12C8334C3
:1016B00009F442C028F5813158F48F3008F03FC159
:1016C0008150863038F188248A94982C540134C093
:1016D000813409F46AC18234B1F74830510508F405
:1016E0006AC18090AF079090B0079824892498240D
:1016F000B12CA12C1AE0810E911CA11CB11C1CC0A4
:10170000893470F4863408F050C1843409F425C15A
:101710008534C9F688E0882E912CA12CB12C0CC000
:101720008A3409F442C108F42EC115E0812E912CAF
:10173000A12CB12C8B3439F631E083169306A10429
:10174000B10408F0A6CF81149104A104B10429F0DA
:1017500084014815590508F032C12FB7F8948091DB
:101760009F079091A007A091A107B091A2072FBF5A
:1017700040914A0550914B0560914C0570914D0583
:10178000841B950BA60BB70B0997A105B10520F09B
:101790001092A8071092A7074091790750917A07F5
:1017A00030E020E0F901EE0FFF1FE150F94F01900A
:1017B000F081E02D309799F0D90183E0B695A79597
:1017C0008A95E1F7A40FB51F8C9190E0622F6770A6
:1017D00002C0959587956A95E2F7817080832F5FA7
:1017E0003F4F28333105F1F68091700790917107D2
:1017F000BC01605C7F4FDC012F96EEADFFAD2F97F3
:10180000219131912F96FFAFEEAF2F972115310522
:1018100031F04D915C911197F901518340831296FB
:101820006A177B0749F7FB0188599F4F6196AEAD58
:10183000BFAD61974D915D916196BFAFAEAF6197BE
:101840004115510529F020813181DA012D933C9316
:1018500032968E179F0751F7E0917307F091740746
:10186000CF01805B9F4F6396AEADBFAD63972D9167
:101870003D916396BFAFAEAF63972115310551F02F
:101880004081518162817381D9014D935D936D9344
:101890007C93139734968E179F0729F7E09176076C
:1018A000F0917707CF0180569F4F2D96AEADBFAD1B
:1018B0002D97ED90FD902D96BFAFAEAF2D97E11413
:1018C000F104F1F0008111817281638154814581BD
:1018D00036812781D7010C9311961C93119712968C
:1018E0007C93129713966C93139714965C931497AA
:1018F00015964C93159716963C93169717962C931E
:1019000038968E179F0789F6C85ADF4F0FB6F8949E
:10191000DEBF0FBECDBFDF91CF911F910F91FF9022
:10192000EF90DF90CF90BF90AF909F908F907F907F
:101930006F905F904F903F902F900C949607473098
:101940005105C8F18090AF07912CB12CA12CF9E082
:101950008F0E911CA11CB11CEFCE4430510558F1E3
:101960002091AB073091AC07322723273227A3E021
:10197000B0E00E94E51C4B015C0106E0800E911C6A
:10198000A11CB11CD9CE44305105A8F08090AB0702
:101990009090AC07982489249824B12CA12C26E09F
:1019A000820E911CA11CB11CC7CEA4E08A2E912CE2
:1019B000A12CB12CC1CE812C912C5401BDCED09044
:1019C000AA078FEB8D0D8A3000F190924F0580921F
:1019D0004E050E94C009B501A40142505109610998
:1019E00071094755584FDA012C91B1E08B1A9108D3
:1019F000A108B108F401E755F84F308123273227B9
:101A000023272817390709F044CE025011091093F3
:101A10004F0500934E056090AB077090AC0776249D
:101A2000672476248091AB070091AD071091AE0733
:101A3000102701271027E090AC07F090AD07FE2497
:101A4000EF24FE24C090AE07E2E4DE1609F4A8C736
:101A5000ED1508F478C0F5E0DF1609F4D8C5FD15DA
:101A600070F1F2E0CF2EDC1409F417C5CD1450F05C
:101A7000EE24E394DE1409F487C461E070E08D2D58
:101A800090E041C0E3E0FE2EDF1409F4D8C124E069
:101A9000D212F3CFC801019763E070E08D37910552
:101AA00058F420917E07C301800F911F2817190653
:101AB00008F07CC562E070E084E090E024C03FE084
:101AC000D31609F4C3C53D1508F146E0D412D5CFAD
:101AD000209172078091750790E0880F991FE22F7F
:101AE000F0E08E0F9F1F4091780724E0429FA001F5
:101AF0001124480F591F6416750608F493C062E05C
:101B000070E086E090E00E94B10999C080E1D816AB
:101B100009F4BAC291E4D912B0CFD092AA0781E0F9
:101B20008093AB078EE78093AC0780E00E94CB04E4
:101B30009093AD078093AE0786E090E090934F05B9
:101B400080934E057CC0A7E4DA1609F49BC7AD1557
:101B500008F441C0B4E4DB1609F4A7C6DB1608F4A8
:101B600032C6E5E4DE1609F463C7F6E4DF1285CF7A
:101B70002FB7F89480919F079091A007A091A1079B
:101B8000B091A2072FBFD092AA072EE72093AB07F0
:101B9000209108022093AC0720918C0730918D078B
:101BA00040918E0750918F075093AD074093AE0739
:101BB0003093AF072093B007B093B107A093B2075B
:101BC0009093B3078093B407809109028093B5077F
:101BD0008DE090E0B3CF79E4C72EDC1409F486C71A
:101BE000DC1408F46EC76AE4E62EDE1409F48BC731
:101BF0005BE4F52EDF1041CF813009F087C71092EA
:101C000094078BE48093AA078EE78093AB078091BB
:101C100008028093AC07809109028093AD0785E0AC
:101C200090E08CCF6E167F06D8F4660C771CE0919E
:101C30007007F0917107E60DF71D11830083809105
:101C40004E0590914F0502968130914008F45CC595
:101C50008091AA0764E070E090E00E94B10954C549
:101C600068167906F0F5A80170E060E080917307CE
:101C70009091740760FC1CC0D301AE1BBF0BFD012B
:101C8000EE0FFF1FEC7FF370E80FF91F8081918149
:101C9000A281B381AA27BB27BA0155274427842BE9
:101CA000952BA62BB72B80839183A283B383C7CFB9
:101CB000E095F095E60DF71DEE0FFF1FEC7FF3703A
:101CC000E80FF91F0081118122813381002711273C
:101CD000042B152B262B372B008311832283338370
:101CE000AECF9301237033274801B12CA12CC12C16
:101CF000D12C7601E0917607F09177072115310517
:101D000049F5681A790A660C771CB8EF6B22B7E0C0
:101D10007B22E60DF71D4080618072801381B481C3
:101D2000A581940140E050E060E070E080E090E048
:101D300000E30E94531D242920833629318347293B
:101D40004283512B5383B62BB483A72BA583868361
:101D5000978375CF2130310541F50FEF601A700A76
:101D6000681A790A660C771C18EF612217E0712255
:101D7000E60DF71D4080618072801381B681A781D6
:101D80009401A501B601C70100E20E94531D242958
:101D900020833629318347294283152B138364839B
:101DA00075838B2B86839A2BD3CF2230310529F56F
:101DB00022E0620E711C681A790A660C771C38EFF3
:101DC000632237E07322E60DF71D40806180748046
:101DD0001581B681A7819401A501B601C70100E173
:101DE0000E94531D24292083362931834283538343
:101DF000762A7482172B1583D4CF43E0640E711CAE
:101E0000681A790A660C771C88EF682287E07822C6
:101E1000E60DF71D528143813481258196818781AA
:101E2000808291825A2952834B2943833C293483EF
:101E30002D2925839E2996838F29878300CFC8016A
:101E4000019763E070E08D379105C8F44301800E7F
:101E5000911E20917207E0917507F0E0EE0FFF1FD1
:101E6000E20FF11D80917807A4E08A9FC001112440
:101E70008E0F9F1F8816990628F062E070E083E0BD
:101E800090E041CE000F111F0D5F1F4F10934F05C3
:101E900000934E0549EAE42E47E0F42ED70111964F
:101EA000CD01895A97408017910710F41C92F7CF03
:101EB00083E08093AA0703500093AB07C090760796
:101EC000D0907707A0907307B09074074090700788
:101ED00050907107A22FB0E02B96BFAFAEAF2B97FB
:101EE00083E090E0DC01AE1BBF0BBEAFADAF2B9625
:101EF0002EAC3FAC2B97209430948614970409F4B1
:101F00009ECE2B96AEADBFAD2B976A167B0650F4D6
:101F10009301220F331F240D351DD9018C91119689
:101F20003C911CC06E167F0680F560FC24C0C30186
:101F30002B96AEADBFAD2B978A1B9B0B880F991FBD
:101F40008C7F93708A0D9B1DDC014D915D916D918D
:101F50007C91AB0166277727842F352FD701139605
:101F60003C93139714968C93B2E0EB0EF11C0FEF99
:101F7000601A700AC2CF9101260D371D220F331F40
:101F80002C7F33702A0D3B1DC8CF830103701127AE
:101F90000115110521F583010E1B1F0B000F111FE9
:101FA000087F17700C0D1D1DD8012C9111963C91C6
:101FB000119712964C91129713965C911397149661
:101FC0006C91149715967C91159716968C9116978F
:101FD00017969C9100E30E946E1D822FBFCF0130A7
:101FE000110511F50E1B1F0B060D171D000F111FFC
:101FF000087F17700C0D1D1DD8012C9111963C9176
:10200000119712964C91129713965C911397149610
:102010006C91149715967C91159716968C9116973E
:1020200017969C9100E2D7CF0230110511F50E1BD7
:102030001F0B060D171D000F111F087F17700C0DC9
:102040001D1DD8012C9111963C91119712964C911F
:10205000129713965C91139714966C91149715969A
:102060007C91159716968C91169717969C9100E186
:10207000B2CF2DAD3EAD260D371D220F331F287F69
:1020800037702C0D3D1D49CFC80101978B37910545
:1020900040F42091AF07C801880F991F281719062F
:1020A00029F063E070E080E190E02DCD2301400E47
:1020B000511E20917207A0917507B0E0AA0FBB1FB7
:1020C000A20FB11D8091780734E0839FC0011124D5
:1020D0008A0F9B1F4816590618F062E070E0E3CFA4
:1020E00086E090E090934F0580934E0580E18093C9
:1020F000AA077092AB076092AC071092AD070093ED
:10210000AE078090760790907707E0917307F09183
:1021100074072B96FFAFEEAF2B97C0907007D0904F
:1021200071076596DFAECEAE659739EA232E37E0AC
:10213000332EA22EB12C83E090E07C01EA1AFB0A38
:102140006796FFAEEEAE6797F501E095F09569965C
:10215000FFAFEEAF69976414750409F4D5C2F101BD
:1021600047818085542F482F6A147B0490F4F30133
:10217000EE0FFF1F6596CEACDFAC6597EC0DFD1D35
:10218000518340833FEF631A730A42E0240E311CEF
:10219000E2CF6A167B06D0F570E060E060FC1FC0FD
:1021A000F301EA19FB09EE0FFF1FEC7FF3702B968A
:1021B000EEACFFAC2B97EE0DFF1D0081118122814B
:1021C000338122273327BA0155274427402B512B2F
:1021D000622B732B4083518362837383D3CF6996C1
:1021E000EEADFFAD6997E60DF71DEE0FFF1FEC7F1B
:1021F000F3702B96CEACDFAC2B97EC0DFD1D008160
:1022000011812281338100271127E0CFF301E37090
:10221000FF276A01F12CE12C00E010E09801CDAE1F
:10222000DEAEEFAE2196FFAE219722960FAF22973A
:1022300023961FAF239724962FAF249725963FAF61
:102240002597309779F5F301EA1BFB0BEE0FFF1F83
:10225000E87FF770E80DF91DD0802896DFAE28974B
:10226000C180D280E380F48015812DAD3EAD40E089
:1022700050E060E070E080E090E000E30E94531DD9
:1022800028960FAD2897202B20833C2931834D2998
:1022900042835E295383F62AF482172B15838683A3
:1022A000978370CFE130F10579F5EA1BFB0BE60D62
:1022B000F71DEE0FFF1FE87FF770E80DF91D108185
:1022C00028961FAF2897C180D280E380F6801781BF
:1022D0002DAD3EAD40E050E060E070E080E090E089
:1022E00000E20E94531D28960FAD2897202B2083D3
:1022F0003C2931834D294283E52AE3826483758337
:102300008F298683912BCCCFE230F10561F5EA1B52
:10231000FB0BE60DF71DEE0FFF1FE87FF770E80DD2
:10232000F91D108128961FAF2897C180D480E580C1
:10233000F68017812DAD3EAD40E050E060E070E0EA
:1023400080E090E000E10E94531D28960FAD289791
:10235000202B20833C29318342835383D62AD48285
:10236000E72AE582CDCF6796EEADFFAD6797E60D24
:10237000F71DEE0FFF1FE87FF770E80DF91D1DAD8B
:1023800010832EAD2183FECEC801019763E070E07B
:10239000803D974030F520917B07C301800F911F4E
:1023A00062E070E028171906E0F0C80123E0969576
:1023B00087952A95E1F7980127703327232BA1F4FD
:1023C000039690934F0580934E0580914E05909112
:1023D0004F05E9EAF7E08130B1E09B0738F064E0AF
:1023E00070E081E090E08FCB0496EBCF31969F01B7
:1023F000295A37402817390710F41082F7CF91E097
:102400009093AA0783508093AB07A0907907B09070
:102410007A0770E060E020E0C12CD12C7601C394F3
:1024200016012701022E04C0220C331C441C551C2B
:102430000A94D2F7FB0143E0F695E7954A95E1F758
:10244000E455F84F3081A301A3E056954795AA952E
:10245000E1F74F7155274A0D5B1DDA014C9150E0B1
:10246000B62DB77002C055954795BA95E2F7822D03
:1024700040FF0FC0832B80832F5F283009F420E0BA
:10248000EFEF6E1A7E0A6F5F7F4F0617170741F650
:10249000D6CB809538233083EFCFC801019763E016
:1024A00070E0803D974030F520918107C301800F97
:1024B000911F62E070E028171906E0F0C80133E0D0
:1024C000969587953A95E1F7980127703327232B46
:1024D000A1F4039690934F0580934E0580914E058D
:1024E00090914F05E9EAF7E0813021E0920738F05A
:1024F00064E070E082E090E006CB0496EBCF31968A
:102500009F01295A37402817390710F41082F7CF56
:1025100092E09093AA0783508093AB0760917F0766
:102520007091800750E040E0B12CC12CD12C760195
:10253000C394160127010B2C04C0220C331C441C2D
:10254000551C0A94D2F7FA0183E0F695E7958A952F
:10255000E1F7E455F84FA080930193E03695279575
:102560009A95E1F7260F372F311DD9012C9130E0D4
:10257000B62DB77002C035952795BA95E2F7822D32
:1025800020FF10C08A298083B394E8E0BE1201C006
:10259000B12CFFEF6F1A7F0A4F5F5F4F04171507CB
:1025A00041F64DCB8095A822A082EECFC801880FBE
:1025B000991F039690934F0580934E05E9EAF7E043
:1025C000DF0111969D01295A37402817390710F469
:1025D0001C92F7CF94E09093AA0783508093AB07A7
:1025E000660C771CA0917C07B0917D07A60DB71DE6
:1025F0000150110932960F3F100709F420CB8C913E
:1026000011969C911197129691838283F1CF0115B7
:102610003FEF130729F063E070E00115110549F45D
:1026200080917B078150990B8615970528F462E00D
:1026300070E085E090E067CA41E001151F4F09F0A6
:1026400040E060E0C3010E948509F9CA9801E3E017
:1026500036952795EA95E1F7822FA801477055270F
:10266000452B11F081E0820F980121503109203B68
:10267000374020F49091AF07981729F063E070E09D
:102680008FE090E040CA20917B07C301800F911F2B
:102690002817190618F462E070E0F2CF86E090E0A7
:1026A00090934F0580934E058FE08093AA07709218
:1026B000AB076092AC071093AD070093AE07F12C07
:1026C000E12CD12CF70173E0F695E7957A95E1F7C7
:1026D000E755F84F478150E00D2C02C055954795BE
:1026E0000A94E2F7417060E0C701860D971D0E94D1
:1026F0008509D394A8E0DA1201C0D12CBFEFEB1A00
:10270000FB0AE016F106F1F6E0904E05F0904F0559
:1027100087010E5F1F4F10934F0500934E050E94D7
:10272000C009F701E755F84F908381832996CFAC14
:102730002997C7FC12C061E08C2D0E946E02809127
:102740009005909191058230910538F0880F991F7E
:10275000880F991F05970197F1F72796AEADBFAD8A
:102760002797ED91FC9111970280F381E02DA8014C
:1027700069EA77E0CD0119952796AEADBFAD2797F1
:10278000ED91FC9111970680F781E02DCD0119950F
:1027900080919005909191058230910538F0880FD5
:1027A000991F880F991F05970197F1F72996CFACCC
:1027B0002997C7FE02C00C94C80B60E08C2D0E94C4
:1027C0006E020C94C80B811165C0C090AE07D0900A
:1027D000AF070E94CB04009709F45CC0E816F90625
:1027E00008F058C0DC24CD24DC24C816D90608F033
:1027F00051C0CE14DF0408F44DC0470164EBA62E8F
:1028000067E0B62E10E000E0B40180E00E9472089C
:102810009C01200F311F255F3F4F2130314098F43C
:10282000892B59F0A501B40180E00E94840800972B
:1028300021F0A80EB91E080F191FC40101967401DA
:10284000C816D90628F5C8010B9690934F058093BA
:102850004E0583E48093AA078EE78093AB07F0923E
:10286000AC07E092AD0780918C0790918D07209185
:102870008E0730918F073093AE072093AF07909368
:10288000B0078093B1071093B2070093B307D7C97D
:102890004C01BACF83E090E090934F0580934E05B2
:1028A00083E48093AA0781E878C0F5E16F1671048C
:1028B00008F06AC0C301880F991F860D971DADEA05
:1028C000B7E08E010F5F1F4FF8019F01201B310BF6
:1028D0002817390718F42D912193F7CFB12CA12C8B
:1028E000412CD12CC12C4BE0E42EF12C6A147B043A
:1028F00041F1D8013C9011968C90119712968C91D1
:10290000982C882EB401832D0E947208009791F0B4
:102910008E0D9F1D81309140A0F4A7014755584F5F
:10292000B401832D0E948408009721F0E80EF91E5F
:10293000C80ED91E0D5F1F4F4A2CF50131965F015D
:10294000D5CFF0924F05E0924E0584E48093AA071C
:102950008EE78093AB071092AC074092AD07809151
:102960008C0790918D0720918E0730918F073093BF
:10297000AE072093AF079093B0078093B107D09232
:10298000B207C092B3075BC983E090E090934F0514
:1029900080934E05D092AA0782E88093AB074FC977
:1029A0000091AF071091B007102701271027093FAA
:1029B000110548F083E090E090934F0580934E0519
:1029C000D092AA0770CFB7010E944308282FCB01ED
:1029D000009751F1253140F530E049E0429FF00188
:1029E000439FF00D1124E55EFB4FCC20C1F0208504
:1029F0002223E1F02017110609F0C0F40190F081C4
:102A0000E02D61EB77E019958EE723E030E030931D
:102A10004F0520934E0592E49093AA07BECF028003
:102A2000F381E02D1995F0CF81E8EFCF82E8EDCF6B
:102A3000D092AA078EE78093AB0781E2E3E2F5E04C
:102A4000AE014F5F5F4FDA0101900D928A95E1F779
:102A5000ECEAF7E0DA01CD01841B950B6D919F0143
:102A6000295A3740662311F06193F5CF2755384F27
:102A70004DEAD9014C93FC01E755F84F2EED248324
:102A800005965CC8D092AA078EE78093AB0786E0D4
:102A9000E4E4F5E0DE01119601900D928A95E1F7EC
:102AA000FE013196ACEAB7E081919D01295A374089
:102AB000882311F08D93F8CF30934F0520934E0566
:102AC000BEC888E48093AA078EE78093AB0789E0AD
:102AD0008093AC07EEE8F9E0ADEAB7E087E999E06A
:102AE00021912D938E179F07D9F772C8D092AA070C
:102AF00084E8B2E66B16710409F485E88093AB07AD
:102B000083E090E01BC8D092AA07F7CF81E08093C2
:102B1000940777C80F931F93CF93DF938B01FC012A
:102B2000FE5F2081222351F19C012F5F3D4F2250F7
:102B30003E4FD9012D913C912F37310510F02EE7F2
:102B400030E0622FE80128834081442311F08F5F39
:102B50009D4FFC01D80180E0861790F49081329659
:102B600011969C931197AF0142505109EA01998146
:102B700012969C9312978F5F1296EECF9C01D7CF3F
:102B8000220F331F2F5F3F4F2D3F310579F04DEF5F
:102B900050E0421B530B70E060E0C801820F931FAE
:102BA000DF91CF911F910F910C94CC1EDF91CF91AB
:102BB0001F910F9108950C943A1E0C943A1E0F9396
:102BC0001F93CF93DF93CDB7DEB7C150D1400FB67F
:102BD000F894DEBF0FBECDBF8C01FB0140814F37A3
:102BE00008F04EE750E0C050DF4F59834883C05093
:102BF000D1406F5F7F4FCE0101960E94C31EC0502F
:102C0000DF4FE881F981C050D14081E090E08C0F26
:102C10009D1FE80FF91F108281E091E0FE013196BF
:102C2000D80101900D920197E1F7CF5FDE4F0FB60B
:102C3000F894DEBF0FBECDBFDF91CF911F910F91F2
:102C400008950F931F93CF93DF93CDB7DEB7C15095
:102C5000D1400FB6F894DEBF0FBECDBF8C01FB0193
:102C600040814F3708F04EE750E0C050DF4F5983A6
:102C70004883C050D1406F5F7F4FCE0101960E94C4
:102C8000C31EC050DF4FE881F981C050D14081E0C0
:102C900090E08C0F9D1FE80FF91F1082F801EF5F85
:102CA000FE4F81E08083D801AE5FBE4F81E091E0AE
:102CB000FE01319601900D920197E1F7CF5FDE4F53
:102CC0000FB6F894DEBF0FBECDBFDF91CF911F913D
:102CD0000F910895FF920F931F93CF93DF938B0172
:102CE000FC01EF5FFE4F2081222319F19C012E5F32
:102CF0003E4F21503F4FD901CD91DC91CF37D105C7
:102D000010F0CEE7D0E0FC2ED801CC93C11113C057
:102D10004EE750E04C1B5D0BCE01019670E060E089
:102D2000800F911FDF91CF911F910F91FF900C9415
:102D3000CC1E9C01DECF2081BC01222311F06E5FEE
:102D40007E4FAE01C80101960E94C31E8EE7F812A5
:102D5000DFCFDF91CF911F910F91FF9008951F92C8
:102D60000F920FB60F9211242F933F938F939F933F
:102D7000AF93BF9380919F079091A007A091A10767
:102D8000B091A20730919E0723E0230F2D3758F50D
:102D90000196A11DB11D20939E0780939F079093DC
:102DA000A007A093A107B093A2078091A3079091D9
:102DB000A407A091A507B091A6070196A11DB11D7A
:102DC0008093A3079093A407A093A507B093A607A9
:102DD000BF91AF919F918F913F912F910F900FBE17
:102DE0000F901F90189526E8230F0296A11DB11D84
:102DF000D2CF1F920F920FB60F9211240BB60F92E3
:102E00002F933F934F935F936F937F938F939F93F2
:102E1000AF93BF93EF93FF9389EA98E00E949903E1
:102E2000FF91EF91BF91AF919F918F917F916F91A2
:102E30005F914F913F912F910F900BBE0F900FBE5E
:102E40000F901F9018951F920F920FB60F9211249A
:102E50000BB60F922F938F939F93EF93FF93E09175
:102E6000B908F091BA088081E091BF08F091C008DC
:102E700082FD1DC090818091C2088F5F8F73209169
:102E8000C308821741F0E091C208F0E0E755F74F20
:102E9000958F8093C208FF91EF919F918F912F9111
:102EA0000F900BBE0F900FBE0F901F901895808152
:102EB000F2CF1092AC081092AB0888EE93E0A0E03D
:102EC000B0E08093AD089093AE08A093AF08B093A4
:102ED000B0088EEF94E09093AA088093A90885EC3F
:102EE00090E09093B6088093B50884EC90E09093BE
:102EF000B8088093B70880EC90E09093BA0880936C
:102F0000B90881EC90E09093BC088093BB0882ECF8
:102F100090E09093BE088093BD0886EC90E090937B
:102F2000C0088093BF081092C2081092C308109284
:102F3000C4081092C5080E94FC01AEE8B9E090E018
:102F400080E041E2FC013E9621E030E086309105D0
:102F500010F430E020E0E20FF31F40935700E491BB
:102F6000ED9301968930910569F70895CF93DF932A
:102F7000CDB7DEB764970FB6F894DEBF0FBECDBFF6
:102F8000789484B5826084BD84B5816084BD85B544
:102F9000826085BD85B5816085BD80916E00816050
:102FA00080936E00109281008091810082608093F6
:102FB00081008091810081608093810080918000F8
:102FC0008160809380008091B10084608093B10023
:102FD0008091B00081608093B00080919100826008
:102FE0008093910080919100816080939100809105
:102FF00090008160809390008091A1008260809316
:10300000A1008091A10081608093A1008091A00027
:1030100081608093A00080912101826080932101D2
:103020008091210181608093210180912001816044
:103030008093200180917A00846080937A0080914F
:103040007A00826080937A0080917A008160809318
:103050007A0080917A00806880937A001092C10093
:103060000E94D80720918C0930918D093A8B298BC9
:1030700080918A0990918B099A8389839C8B8B8B91
:103080001A8619861C821B82912C812C712C612C32
:10309000512C412C312C212CA989BA89E985FA853A
:1030A000AE17BF0709F48FC0AB89BC8950968D91CC
:1030B0009C915197EB81FC81E80FF91FFC83EB8316
:1030C0001296DC9012971396EC9013971496FC903E
:1030D000149715960C91159716961C91169717969E
:1030E000BC91EB89FC89C084B1842D2D3E2D4F2DE0
:1030F000502F612F7B2F8C2D9B2DA0E00E94921DC5
:1031000009F054F4D12C6DE2E62E71E3F72E01E0C4
:1031100010E0B0E0C12CB12CDD82EF82FB860C8781
:103120001D87BE87CF86B88A292D382D472D562D6D
:10313000652D742D832D922DA0E00E94921D31F1FA
:10314000AD80BF80CB84DC84ED84FE840F8518893C
:10315000292D382D472D562D652D742D832D922D1B
:103160000E94F41CD22EE32EF42E052F162FB72F1B
:10317000F82FE92F9A2C8B2C7C2C6C845D844E8448
:103180003F842888A0E00E94921DA1F429853A85F9
:103190002F5F3F4F3A8729878B899C8942969C8B6A
:1031A0008B8B9D808F807B846C845D844E843F8478
:1031B000288872CFDD82EF82FB860C871D87BE8751
:1031C000FF87E88BBDCF292D382D472D562D652D36
:1031D000742D832D922DA0E00E94921D59F4912C04
:1031E0004DE2842E51E3752E66246394512C412CBC
:1031F000312C212C909200028092010270920202E6
:10320000609203025092040240920502309206023C
:1032100020920702AB81BC818FEF9FEFA115E0E404
:10322000BE0730F4CD01880F991F009709F4A3C0A1
:103230000E949E1D9E838D8390938B0780938A07A7
:103240002B813C81211580E2380708F097C0C90125
:10325000880F991F880F991F009709F492C00E9448
:103260009E1D98878F839093910780939007AB81E1
:10327000BC81B0939307A09392071C821B821A8A89
:10328000198AE985FA852B813C81E217F30709F455
:103290008CC0A981BA811296DC9012971396EC909B
:1032A00013971496FC90149715960C9115971696F3
:1032B0001C9116971796BC91E981FA81C084B1845C
:1032C0002D2D3E2D4F2D502F612F7B2F8C2D9B2D83
:1032D000A0E00E94921D09F044F4292D382D472DBD
:1032E000562D652D742D832D922DA92CB82CC72C0D
:1032F000D62CE52CF42C032D122D0E94F61CB22E98
:10330000A32E742F652FA981BA8150964D915C919F
:103310008A01000F111FE988FA88EE0CFF1CC9888A
:10332000DA88CC0CDD1CCC0CDD1C90E080E00817AA
:10333000190751F1A981BA811E96ED91FC91E80F10
:10334000F91F20813181F701E80FF91FAD81BE819E
:10335000EA0FFB1F31832083FC01EE0FFF1FEC0DF2
:10336000FD1D2F813885E20FF31FB082A182728389
:1033700063830296DCCF81E090E05ACF8FEF9FEF1E
:103380006ECF81E090E06BCF89899A89840F951F79
:103390009A8B898BAB81BC811196BC83AB83E9810D
:1033A000FA817296FA83E9836CCF81E080930902F7
:1033B00080930A0210929407809308029FB7F894B2
:1033C00040919F075091A0076091A1077091A207BB
:1033D0009FBFE091B908F091BA0892E09083E09124
:1033E000B508F091B6081082E091B708F091B808DE
:1033F00090E190831092C108E091BD08F091BE0861
:1034000096E09083E091BB08F091BC0890819061B8
:103410009083E091BB08F091BC0890819860908304
:10342000E091BB08F091BC08908190689083E09196
:10343000BB08F091BC0890819F7D908329EA38E019
:1034400030939605209395059FEF909394052EEE6B
:1034500032E0309393052093920521E43AE03093D3
:1034600091052093900580936F0784E38093720702
:1034700084E1809375078093780788E380937B07C6
:1034800090E290937E078093810787E090E00E940E
:103490009E1D90937A0780937907009709F451C095
:1034A000DC01E7E01D92EA95E9F788E690E00E94EA
:1034B0009E1D9093710780937007009709F441C097
:1034C00028E6DC011D922A95E9F780E590E00E944C
:1034D0009E1D9093740780937307009791F120E5E8
:1034E000FC0111922A95E9F780EA90E00E949E1D66
:1034F0009093770780937607009719F120EADC0113
:103500001D922A95E9F787E090E00E949E1D909316
:10351000800780937F070097A1F0FC0127E01192BC
:103520002A95E9F780E490E00E949E1D90937D0724
:1035300080937C07009729F020E4DC011D922A95F6
:10354000E9F71A82198209811A81000F111F0150AF
:10355000194FF80180819181892B49F481E090E035
:103560000E949E1DD8018D939C93FC01108229819D
:103570003A812F5F3F4F3A8329832833310519F76A
:1035800080917007909171079A838983EFEBF6E041
:1035900090E080E021913191232B41F4DF011297DB
:1035A00029813A81280F391F2D933C93029680344C
:1035B000910581F710E000E0C801880F991FDC0138
:1035C000A15BB94F7D018D919C91892B49F481E0DC
:1035D00090E00E949E1DF70191838083DC011C9284
:1035E0000F5F1F4F0833110539F720917C07309189
:1035F0007D07EFE0F6E090E080E041915191452BAE
:1036000039F4DF011297A901480F591F4D935C93BC
:1036100002968034910589F7E7EEF5E090E080E0CE
:1036200029813A81205C3F4F3A832983219131914E
:10363000232B41F4DF01129729813A81280F391F8A
:103640002D933C9302968832910581F74091730740
:1036500050917407EFEBF5E090E080E0219131911B
:10366000232B59F4DF0112979C01220F331F220FE5
:10367000331F240F351F2D933C9301968431910500
:1036800069F74091760750917707E7E9F5E090E018
:1036900080E021913191232B61F4DF0112979C018D
:1036A00013E0220F331F1A95E1F7240F351F2D93D6
:1036B0003C9301968431910561F72091000230918D
:1036C0000102409102025091030260910402709144
:1036D0000502E8EEAE2EF3E0BF2EC12CD12CE12C7A
:1036E000F12C00E010E080910602909107020E9408
:1036F000F61C2093960730939707409398075093B2
:1037000099070E94FA0260939A0770939B0780932F
:103710009C0790939D07992493940E94FA0200912C
:103720009A0710919B0720919C0730919D07601B81
:10373000710B820B930B00919607109197072091C4
:10374000980730919907601771078207930708F46B
:10375000F6C080910A02811102C0109294079092E3
:103760000A0290920902809194078823A1F0809127
:103770000802882371F00E94FC010E9467070E94E2
:10378000D80710928C0710928D0710928E07109216
:103790008F07198202C031E0398389818093080242
:1037A0000E9496079981913009F0E2C01A8219822D
:1037B0008091920790919307A981BA81A817B907C0
:1037C000D8F5E0919007F0919107CD01880F991FEE
:1037D000880F991FE80FF91F2081318142815381A1
:1037E000211531054105510571F060918C077091EB
:1037F0008D0780918E0790918F070E94BB1C672BCD
:10380000682B692B99F4E0918A07F0918B078981E5
:103810009A81880F991FE80FF91F80819181DC013F
:10382000ED91FC910480F581E02D1995E981FA81F3
:103830003196FA83E983BCCF80918C0790918D07F4
:10384000A0918E07B0918F070196A11DB11D8093A5
:103850008C0790938D07A0938E07B0938F0780916C
:103860000802813091F520918207309183074091C1
:103870008407509185076091860770918707809132
:10388000880790918907A0900002B0900102C09033
:103890000202D0900302E0900402F0900502009131
:1038A0000602109107020E94891D2093820730931F
:1038B000830740938407509385076093860770932E
:1038C000870780938807909389070E94EB0980916E
:1038D0009507811118C0909295070E94FA020091F5
:1038E0009607109197072091980730919907601BD0
:1038F000710B820B930B60939A0770939B078093D5
:103900009C0790939D0780919A0790919B07A091A7
:103910009C07B0919D074091960750919707609141
:10392000980770919907840F951FA61FB71F809362
:103930009A0790939B07A0939C07B0939D070E94C2
:10394000FA0200919A0710919B0720919C073091F1
:103950009D07601B710B820B930B603177428105D1
:10396000910510F00E94EB0988950E942804D5CE9D
:103970000E94670774CFA1E21A2EAA1BBB1BFD0190
:103980000DC0AA1FBB1FEE1FFF1FA217B307E4073E
:10399000F50720F0A21BB30BE40BF50B661F771F96
:1039A000881F991F1A9469F7609570958095909576
:1039B0009B01AC01BD01CF010895EE0FFF1F881FD1
:1039C0008BBF0790F691E02D1994A29FB001B39F91
:1039D000C001A39F700D811D1124911DB29F700D18
:1039E000811D1124911D0895689401C0E8948F925F
:1039F0009F92CF93DF930E94021DDF91CF919F9002
:103A00008F90089588249924F401E401B0E49F93F1
:103A1000AA279A158B049C04ED05FE05CF05D00757
:103A2000A10798F4AD2FDC2FCF2FFE2FE92D982C76
:103A3000892E982F872F762F652F542F432F322FC3
:103A40002227B85031F7BF9127C01B2EBF91BB274B
:103A5000220F331F441F551F661F771F881F991F92
:103A6000881C991CEE1FFF1FCC1FDD1FAA1FBB1F48
:103A70008A149B04EC05FD05CE05DF05A007B10700
:103A800048F08A189B08EC09FD09CE09DF09A00B54
:103A9000B10B21601A94E1F62EF49401AF01BE013E
:103AA000CD01000C0895002E083090F0982F872F3C
:103AB000762F652F542F432F322F22270850F4CF13
:103AC000220F331F441F551F661F771F881F991F22
:103AD0000A95B2F7002D089597FD1094002E083036
:103AE00098F00850232F342F452F562F672F782F0B
:103AF000892F912DF4CF1594979587957795679594
:103B000057954795379527950A95AAF71124002DC3
:103B100008952A0D3B1D4C1D5D1D6E1D7F1D801FD0
:103B2000911F08950024A7FD00942A173005400531
:103B30005005600570058005900508950F931F934B
:103B4000CF93DF938230910510F482E090E0E09112
:103B50009909F0919A0930E020E0B0E0A0E03097B8
:103B600099F42115310509F44AC0281B390B24307A
:103B70003105D8F58A819B816115710589F1FB01B9
:103B800093838283FE0111C04081518102811381A0
:103B900048175907E0F04817590799F4109761F052
:103BA00012960C93129713961C933296CF01DF91C5
:103BB000CF911F910F9108950093990910939A093D
:103BC000F4CF2115310551F04217530738F0A90100
:103BD000DB019A01BD01DF01F801C1CFEF01F9CF8F
:103BE00090939A0980939909CDCFFE01E20FF31FBC
:103BF000819391932250310939832883D7CF209123
:103C0000970930919809232B41F4209117023091A4
:103C1000180230939809209397092091150230914A
:103C200016022115310541F42DB73EB74091190216
:103C300050911A02241B350BE0919709F0919809D5
:103C4000E217F307A0F42E1B3F0B2817390778F073
:103C5000AC014E5F5F4F2417350748F04E0F5F1FD2
:103C60005093980940939709819391939FCFF0E0E7
:103C7000E0E09CCFCF93DF930097E9F0FC0132970F
:103C800013821282A0919909B0919A09ED0130E056
:103C900020E01097A1F420813181820F931F2091A1
:103CA0009709309198092817390709F061C0F093F6
:103CB0009809E0939709DF91CF910895EA01CE1713
:103CC000DF07E8F54A815B819E0141155105B1F797
:103CD000E901FB83EA8349915991C40FD51FEC1781
:103CE000FD0761F4808191810296840F951FE9019F
:103CF00099838883828193819B838A83F0E0E0E0CB
:103D000012968D919C9113970097B9F52D913C9146
:103D10001197CD010296820F931F20919709309140
:103D200098092817390739F6309751F510929A09F2
:103D300010929909B0939809A0939709BCCFD383A7
:103D4000C28340815181840F951FC817D90761F440
:103D50004E5F5F4F88819981480F591F518340837F
:103D60008A819B81938382832115310509F0B0CF2D
:103D7000F0939A09E09399099ECFFD01DC01C0CF31
:103D800013821282D7CFFB01DC0102C001900D9299
:103D900041505040D8F70895DC0101C06D93415067
:0A3DA0005040E0F70895F894FFCFBB
:103DAA00002D3101000000000101010202000000A3
:103DBA00000000000000009B09800000C0C101C390
:103DCA000302C2C60607C705C5C404CC0C0DCD0F35
:103DDA00CFCE0E0ACACB0BC90908C8D81819D91BE5
:103DEA00DBDA1A1EDEDF1FDD1D1CDC14D4D515D765
:103DFA001716D6D21213D311D1D010F03031F133B5
:103E0A00F3F23236F6F737F53534F43CFCFD3DFF74
:103E1A003F3EFEFA3A3BFB39F9F83828E8E929EB44
:103E2A002B2AEAEE2E2FEF2DEDEC2CE42425E527A4
:103E3A00E7E62622E2E323E12120E0A06061A16314
:103E4A00A3A26266A6A767A56564A46CACAD6DAFB4
:103E5A006F6EAEAA6A6BAB69A9A86878B8B979BB64
:103E6A007B7ABABE7E7FBF7DBDBC7CB47475B577E4
:103E7A00B7B67672B2B373B17170B0509091519374
:103E8A0053529296565797559594549C5C5D9D5FF4
:103E9A009F9E5E5A9A9B5B99595898884849894BC4
:103EAA008B8A4A4E8E8F4F8D4D4C8C448485458724
:103EBA00474686824243834181804000C181400156
:103ECA00C0804101C0804100C1814001C0804100E1
:103EDA00C1814000C1814001C0804101C0804100D0
:103EEA00C1814000C1814001C0804100C1814001BF
:103EFA00C0804101C0804100C1814001C0804100B1
:103F0A00C1814000C1814001C0804100C18140019E
:103F1A00C0804101C0804100C1814000C18140018F
:103F2A00C0804101C0804100C1814001C080410080
:103F3A00C1814000C1814001C0804101C08041006F
:103F4A00C1814000C1814001C0804100C18140015E
:103F5A00C0804101C0804100C1814000C18140014F
:103F6A00C0804101C0804100C1814001C080410040
:103F7A00C1814000C1814001C0804100C18140012E
:103F8A00C0804101C0804100C1814001C080410020
:103F9A00C1814000C1814001C0804101C08041000F
:103FAA00C1814000C1814001C0804100C1814001FE
:103FBA00C0804101C0804100C18140790931075D5B
:103FCA00076C09015507520748073F0701370734AD
:103FDA000727071E07011307EA060607FB0602F072
:103FEA0006ED06DD06D20602BD060905AA069B06EF
:103FFA00048606830670066106043706B8050B06B2
:10400A00E80508BE05BB058C056905085405510578
:10401A003E052405040F050C05F604DC04043707E5
:10402A00340727071E0701F006ED06DD06D2060251
:10403A00860683067006610604BE05BB058C056903
:10404A0005083706B8050B06E805083706B8050B54
:10405A0006E805083706B8050B06E805083706B866
:10406A00050B06E80508211667096A16DF157FABF6
:10407A0008A7088A150A09FD000000005904DB1583
:10408A005A04C404C104C004C004B50400000000FA
:10409A00C704DD15C80422031F0300000000BB0388
:1040AA002503520308048303610375035441534BE8
:1040BA0030005245533000504C4300434F4E46495E
:1040CA004730006437383135356166373736623202
:1040DA0031303630303862616537333737316163B2
:0A40EA0034663600342E322E370003
:00000001FF
